:020000040000FA
:100000000C9462000C948A000C948A000C948A0070
:100010000C948A000C948A000C948A000C948A0038
:100020000C948A000C948A000C948A000C948A0028
:100030000C948A000C948A000C948A000C948A0018
:100040000C94AE020C948A000C941E030C94F802DB
:100050000C948A000C948A000C948A000C948A00F8
:100060000C948A000C948A000000000025002800EF
:100070002B0000000000240027002A0000000000E0
:1000800023002600290004040404040404040202DA
:100090000202020203030303030301020408102007
:1000A0004080010204081020010204081020000012
:1000B0000008000201000003040700000000000027
:1000C0000000530411241FBECFEFD8E0DEBFCDBF28
:1000D00011E0A0E0B1E0E0E1F9E002C005900D928E
:1000E000A833B107D9F721E0A8E3B1E001C01D9220
:1000F000A23EB207E1F710E0C2E6D0E004C02197CB
:10010000FE010E948004C136D107C9F70E94500346
:100110000C9486040C94000090E0FC01E255FF4F23
:100120002491FC01E656FF4F3491FC01EA57FF4F42
:10013000E491EE23C1F1222339F02330E9F090F469
:10014000213001F1223011F1F0E0EE0FFF1FE458F1
:10015000FF4FA591B491EC91E32381E090E029F564
:1001600080E008952730A9F02830C9F0243061F7E5
:10017000809180008F7D03C0809180008F77809375
:100180008000E2CF84B58F7784BDDECF84B58F7DCC
:10019000FBCF8091B0008F778093B000D5CF809156
:1001A000B0008F7DF9CF80E090E00895CF93DF938A
:1001B00090E0FC01E656FF4F24918A579F4FFC01C7
:1001C00084918823C9F090E0880F991FFC01EE58B4
:1001D000FF4FA591B491FC01E859FF4FC591D4910F
:1001E00061110DC09FB7F8948C91209582238C9358
:1001F0008881282328839FBFDF91CF9108956230A3
:1002000051F49FB7F8943C91822F809583238C936F
:10021000E8812E2BEFCF8FB7F894EC912E2B2C93F7
:100220008FBFEACF3FB7F89480914101909142018E
:10023000A0914301B091440126B5A89B05C02F3F72
:1002400019F00196A11DB11D3FBFBA2FA92F982FFC
:100250008827BC01CD01620F711D811D911D42E0F7
:10026000660F771F881F991F4A95D1F70895AF929F
:10027000BF92CF92DF92EF92FF920F931F93CF9393
:10028000DF936C017B018B01040F151FEB015E01F5
:10029000AE18BF08C017D10759F06991D601ED918A
:1002A000FC910190F081E02DC6010995892B79F729
:1002B000C501DF91CF911F910F91FF90EF90DF90DB
:1002C000CF90BF90AF900895FC01538D448D252FA2
:1002D00030E0842F90E0821B930B541710F0CF96E0
:1002E000089501970895FC01918D828D981761F012
:1002F000A28DAE0FBF2FB11D5D968C91928D9F5F29
:100300009F73928F90E008958FEF9FEF0895FC0107
:10031000918D828D981731F0828DE80FF11D858DBA
:1003200090E008958FEF9FEF0895FC01918D228D4D
:10033000892F90E0805C9F4F821B91098F739927D2
:10034000089585E491E00E94950121E0892B09F44C
:1003500020E0822F089580E090E0892B29F00E9410
:10036000A10181110C9400000895FC01A48DA80F37
:10037000B92FB11DA35ABF4F2C91848D90E00196E7
:100380008F739927848FA689B7892C93A089B18907
:100390008C91837080648C93938D848D981306C0A8
:1003A0000288F389E02D80818F7D80830895EF920C
:1003B000FF920F931F93CF93DF93EC0181E0888F1F
:1003C0009B8D8C8D98131AC0E889F989808185FFEF
:1003D00015C09FB7F894EE89FF896083E889F98991
:1003E00080818370806480839FBF81E090E0DF9193
:1003F000CF911F910F91FF90EF900895F62E0B8DE6
:1004000010E00F5F1F4F0F731127E02E8C8D8E11A0
:100410000CC00FB607FCFACFE889F989808185FF07
:10042000F5CFCE010E94B501F1CFEB8DEC0FFD2F82
:10043000F11DE35AFF4FF0829FB7F8940B8FEA89C2
:10044000FB8980818062CFCFCF93DF93EC01888DD1
:100450008823B9F0AA89BB89E889F9898C9185FD3F
:1004600003C0808186FD0DC00FB607FCF7CF8C91CD
:1004700085FFF2CF808185FFEDCFCE010E94B501CF
:10048000E9CFDF91CF910895FC0101900020E9F7B9
:100490003197AF01481B590BBC0185E491E00C94E6
:1004A00037018F929F92AF92BF92CF92DF92EF92DD
:1004B000FF921F93CF93DF93CDB7DEB7A1970FB60F
:1004C000F894DEBF0FBECDBF182F0E948C00892B81
:1004D00099F584E191E00E94440219A2105D18A3ED
:1004E000CE0180960E94440280E391E00E94440283
:1004F0000E9412014B015C018AEFC82ED12CE12C25
:10050000F12C0E941201681979098A099B09683E39
:10051000734081059105A8F321E0C21AD108E108D2
:10052000F10888EE880E83E0981EA11CB11CC1144E
:10053000D104E104F10429F7A1960FB6F894DEBFC7
:100540000FBECDBFDF91CF911F91FF90EF90DF9055
:10055000CF90BF90AF909F908F9008951F920F9271
:100560000FB60F9211242F933F938F939F93AF93C6
:10057000BF9380913D0190913E01A0913F01B091C8
:10058000400130913C0123E0230F2D3758F50196AF
:10059000A11DB11D20933C0180933D0190933E012C
:1005A000A0933F01B093400180914101909142019D
:1005B000A0914301B09144010196A11DB11D80930A
:1005C000410190934201A0934301B0934401BF9134
:1005D000AF919F918F913F912F910F900FBE0F90F0
:1005E0001F90189526E8230F0296A11DB11DD2CFAA
:1005F0001F920F920FB60F9211242F933F934F9398
:100600005F936F937F938F939F93AF93BF93EF937A
:10061000FF9385E491E00E94B501FF91EF91BF91B6
:10062000AF919F918F917F916F915F914F913F918A
:100630002F910F900FBE0F901F9018951F920F9241
:100640000FB60F9211242F938F939F93EF93FF93E5
:10065000E0915501F09156018081E0915B01F091AC
:100660005C0182FD1BC0908180915E018F5F8F7362
:1006700020915F01821741F0E0915E01F0E0EB5BB9
:10068000FE4F958F80935E01FF91EF919F918F9127
:100690002F910F900FBE0F901F9018958081F4CF6F
:1006A000789484B5826084BD84B5816084BD85B54D
:1006B000826085BD85B5816085BD80916E00816059
:1006C00080936E00109281008091810082608093FF
:1006D0008100809181008160809381008091800001
:1006E0008160809380008091B10084608093B1002C
:1006F0008091B00081608093B00080917A00846026
:1007000080937A0080917A00826080937A00809151
:100710007A00816080937A0080917A00806880936B
:100720007A001092C10062E082E00E94D60062E08E
:1007300084E00E94D60062E083E00E94D60060E080
:1007400087E00E94D60060E086E00E94D60062E06A
:1007500085E00E94D600E0915501F091560182E0BB
:100760008083E0915101F09152011082E091530198
:10077000F09154018FEC808310925D01E09159015A
:10078000F0915A0186E08083E0915701F091580181
:10079000808180618083E0915701F09158018081D0
:1007A00088608083E0915701F091580180818068D2
:1007B0008083E0915701F091580180818F7D808383
:1007C00000E010E082E090E00E94510283E090E0BF
:1007D0000E94510284E090E00E94510285E090E086
:1007E0000E94510285E00E948C00892B79F52FB779
:1007F000F89480913D0190913E01A0913F01B0910C
:1008000040012FBF409138015091390160913A0168
:1008100070913B01841B950BA60BB70B8D32914059
:10082000A105B10598F02FB7F89480913D01909102
:100830003E01A0913F01B09140012FBF809338014C
:1008400090933901A0933A01B0933B0187E00E9455
:100850008C00EC018091000190910101C817D9072B
:1008600079F0209769F486E00E948C000197C1F42A
:1008700083E391E00E94440280E391E00E944402FD
:10088000D0930101C09300010115110509F49ACF1D
:100890000E94A101882309F495CF0E94000092CF05
:1008A00085E391E0E7CFE5E4F1E01382128288EE80
:1008B00093E0A0E0B0E084839583A683B78386E0CD
:1008C00091E09183808385EC90E09587848784EC28
:1008D00090E09787868780EC90E0918B808B81EC0D
:1008E00090E0938B828B82EC90E0958B848B86ECEE
:1008F00090E0978B868B118E128E138E148E089536
:10090000EE0FFF1F0590F491E02D0994F894FFCFAE
:10091000010000000000D7013701640124029501A5
:1009200073018701427574746F6E20697320707251
:1009300065737365642E2050696E2069733A2000D8
:080940000D0A0052004C0000FA
:107E0000112484B714BE81FFF0D085E080938100F7
:107E100082E08093C00088E18093C10086E0809377
:107E2000C20080E18093C4008EE0C9D0259A86E02C
:107E300020E33CEF91E0309385002093840096BBD3
:107E4000B09BFECF1D9AA8958150A9F7CC24DD24C4
:107E500088248394B5E0AB2EA1E19A2EF3E0BF2EE7
:107E6000A2D0813461F49FD0082FAFD0023811F036
:107E7000013811F484E001C083E08DD089C08234E0
:107E800011F484E103C0853419F485E0A6D080C0E4
:107E9000853579F488D0E82EFF2485D0082F10E0AE
:107EA000102F00270E291F29000F111F8ED06801E7
:107EB0006FC0863521F484E090D080E0DECF843638
:107EC00009F040C070D06FD0082F6DD080E0C81688
:107ED00080E7D80618F4F601B7BEE895C0E0D1E017
:107EE00062D089930C17E1F7F0E0CF16F0E7DF06D8
:107EF00018F0F601B7BEE89568D007B600FCFDCFD4
:107F0000A601A0E0B1E02C9130E011968C91119780
:107F100090E0982F8827822B932B1296FA010C0160
:107F200087BEE89511244E5F5F4FF1E0A038BF0790
:107F300051F7F601A7BEE89507B600FCFDCF97BE46
:107F4000E89526C08437B1F42ED02DD0F82E2BD052
:107F50003CD0F601EF2C8F010F5F1F4F84911BD097
:107F6000EA94F801C1F70894C11CD11CFA94CF0C13
:107F7000D11C0EC0853739F428D08EE10CD085E9AC
:107F80000AD08FE07ACF813511F488E018D01DD067
:107F900080E101D065CF982F8091C00085FFFCCF94
:107FA0009093C60008958091C00087FFFCCF809118
:107FB000C00084FD01C0A8958091C6000895E0E648
:107FC000F0E098E1908380830895EDDF803219F02E
:107FD00088E0F5DFFFCF84E1DECF1F93182FE3DFCA
:107FE0001150E9F7F2DF1F91089580E0E8DFEE27F6
:047FF000FF270994CA
:027FFE00040479
:00000001FF
